S00C000070656E322E73726563A3
S11300000EC028C0C3C026C025C024C023C022C03F
S113001021C020C01FC01EC01DC01CC01BC0112495
S11300201FBECFE5D2E0DEBFCDBF10E0A0E6B0E05A
S1130030E2ECF1E002C005900D92A436B107D9F7C5
S113004020E0A4E6B0E001C01D92A936B207E1F7B2
S11300505DD0B5C0D5CF38B381E090E0AC0100905D
S1130060610002C0440F551F0A94E2F7242F209523
S1130070232328BB38B3AC010090600002C0440FB6
S1130080551F0A94E2F7242F2095232328BB37B366
S1130090AC010090610002C0440F551F0A94E2F7BE
S11300A0242F2095232327BB27B30090600002C090
S11300B0880F991F0A94E2F78095822387BB88EE04
S11300C093E00197F1F708952FB7F894C498E0915D
S11300D06600F09167003197F1F798E080FF02C065
S11300E0C49A01C0C498E0916600F091670031970A
S11300F0F1F78695915091F7C49A2FBF80916600CD
S1130100909167000197F1F7789408958DE991E053
S1130110909367008093660087E188BB85E187BB85
S11301208BB780628BBF87E085BB86B1887F86B939
S113013087B18F7387B987B1836287B987B1837FAA
S113014087B9379A369A359AA598789484DF80E0EF
S113015090E00197F1F7C1E080E0B6DF85B18093CC
S1130160650090916400891729F080936400C0931E
S1130170620004C080916200882371F3809164005E
S1130180A3DF109262008AE09FDFE6CF1F920F92F6
S11301900FB60F9211248F939F9396B380916800AA
S11301A0981731F086B38093680081E080936200F1
S11301B09F918F910F900FBE0F901F901895F894F8
S10501C0FFCF6B
S10701C20201010031
S9030000FC
