S00B00006869642E73726563E4
S11300000C9456000C9468000C9468000C946800DE
S11300100C9468000C9468000C9468000C946800BC
S11300200C9468000C9468000C946A000C946800AA
S11300300C9468000C9468000C9468000C9468009C
S11300400C9468000C9468000C9468000C9468008C
S11300500C9468000C9468000C9468000C9468007C
S11300600C9468000C9468000C9468000C9468006C
S11300700C9468000C9468000C9468000C9468005C
S11300800C9468000C9468000C9468000C9468004C
S11300900C9468000C9468000C9468000C9468003C
S11300A00C9468000C9468000C94680011241FBE22
S11300B0CFEFDAE0DEBFCDBF21E0A0E0B1E001C0C8
S11300C01D92A230B207E1F70E94B1000C94120114
S11300D00C9400001F920F920FB60F9211248F936D
S11300E09F93AF93BF93EF93FF938091E10083FFBE
S11300F02DC091E0A9EEB0E0EBEEF0E08C91887FAA
S1130100892B8C9380818E7F80839F5F9730B1F79A
S1130110E9EEF0E08081887F8083ABEEB0E08C91E3
S113012081608C931092EC0082E38093ED008091C7
S1130130EE008081887F8083E1EEF0E08081877F1C
S11301408083E3EEF0E0808180688083FF91EF910B
S1130150BF91AF919F918F910F900FBE0F901F9001
S113016018958DE991E0909301018093000180E856
S113017088B987B9F894E8EDF0E080818E7F8083B8
S1130180E2EEF0E0808182788083E0EFF0E080812D
S113019080728083789419BC89B5806189BD12BE50
S11301A082B78A6582BF89B5826089BD09B400FEC1
S11301B0FDCFE7EDF0E0808181608083E8EDF0E041
S11301C0808180698083A0EEB0E08C918B7F8C93DA
S11301D080818F7D8083E9EDF0E0808180FFFDCF19
S11301E0E0EEF0E080818E7F8083E2EEF0E08081BB
S11301F088608083E8EEF0E0808183FFFDCFE8EE45
S1130200F0E08081877F8083A1EFB0E091E480817A
S11302108E7F8083808180FFFDCF9C9380818E7F41
S10B02208083F5CFF894FFCFB1
S9030000FC
